:100000000A128A11D12F64008001840A04060319A0
:1000100000340406042883120313A00020080319E7
:10002000122813282728F91F1628172827287609A9
:10003000A2007709A3007809A4007909A500A20A03
:100040000319A30A0319A40A0319A50A2F2879087A
:10005000A5007808A4007708A3007608A200790814
:10006000780477047604031D3628372840280030AA
:10007000F9000030F8000030F7000030F600C0282A
:100080009630A1004E280130A10701300310A50CC5
:10009000A40CA30CA20CFF3E031D4628FE30250530
:1000A000031D5328542843286E280130A10701302E
:1000B000A207003003180130A307003003180130F5
:1000C000A407003003180130A50701300310A50C68
:1000D000A40CA30CA20CFF3E031D6628FF302505CF
:1000E000031D73287428552880280130A10201308F
:1000F000FA000310A20DA30DA40DA50DFA0B79288B
:10010000A41B832884288A28023021020318892806
:100110008A28752821188D288E289628FF30A20558
:10012000FF30A3057F30A405FF30A5050310A10C07
:100130002108FA00FB01FC01FD0118300310FA0D43
:10014000FB0DFC0DFD0DFF3E031D9E287A08A20449
:100150007B08A3047C08A4047D08A50420080319D7
:10016000B228B328B828F91FB628B728B828A51789
:100170002508F9002408F8002308F7002208F600F3
:100180000800831203132D08B7008030B7052D082F
:10019000AE002E07BE00AC1FCE28CF28D0283E14BC
:1001A0003E080319D428D528E5283E0A031DD9287E
:1001B000DA28E2280030AD000030AC000030AB009F
:1001C0000030AA00AC17AD01ED280030AD000030C2
:1001D000AC000030AB000030AA0029088039B70617
:1001E0002908AE002E07BF00A81FF728F828F92815
:1001F0003F143F080319FD28FE280E293F0A031D5E
:10020000022903290B290030A9000030A800003082
:10021000A7000030A600A817A90116290030A900E0
:100220000030A8000030A7000030A60029082804EC
:1002300027042604031D1D291E2935290030AD0081
:100240000030AC000030AB000030AA008030AC04BD
:100250007F30AD043708AD042D08A9002C08A80094
:100260002B08A7002A08A6008A2A3E08031D392960
:100270003A2943290030A9000030A8000030A70027
:100280000030A6008A2A3E08AE00AF012F08B10058
:100290003F082E02B000031CB10330087F3EB800B7
:1002A00031080318013E003EB9002D08B6002C08A5
:1002B000B5002B08B4002A08B3000030AD000030B0
:1002C000AC000030AB000030AA000030BD000030B0
:1002D000BC000030BB000030BA00BF01B7293F08A6
:1002E00003197329742994290130AE000310B30D4A
:1002F000B40DB50DB60DAE0B76290130AE0003106E
:10030000AA0DAB0DAC0DAD0DAE0B7F29BD1F89291C
:100310008A298B292A140130AE000310BA0DBB0DB7
:10032000BC0DBD0DAE0B8D2929083602031DA22977
:1003300028083502031DA22927083402031DA2291B
:1003400026083302031CA529A629B5293D1726082E
:10035000B3022708031C270FB4022808031C280F28
:10036000B5022908031C290FB6020130BF071A3055
:100370003F02031CBC29BD296F293608350434040B
:1003800033040319C429C529E4293A14E4290130A6
:10039000AE000310AA0DAB0DAC0DAD0DAE0BC9290F
:1003A000BD1FD329D429D5292A140130AE0003104A
:1003B000BA0DBB0DBC0DBD0DAE0BD729FF30B80774
:1003C0000318B90AFF30B907AC1FE729E829C72984
:1003D000BF01BD1FEC29ED29092AFF303A05AE0007
:1003E000FF303B05AF00FF303C05B0007F303D05DE
:1003F000B100310830042F042E040319002A012A09
:10040000042A0130BF00092A2A1C072A082A092ABF
:10041000012A3F0803190D2A0E2A3F2A0130AA0794
:10042000003003180130AB07003003180130AC076F
:10043000003003180130AD072D1C1F2A202A3F2A47
:100440002A08AE002B08AF002C08B0002D08B10020
:100450000130B200310DB10CB00CAF0CAE0CB20BD0
:100460002A2A3108AD003008AC002F08AB002E0856
:10047000AA000130B8070318B90A0030B9073908D3
:10048000803AFF0080307F02031D482AFF30380287
:10049000031C4B2A4C2A5A2AFF3083120313B8003C
:1004A0000030B9000030AD000030AC000030AB00CF
:1004B0000030AA00831203133908803AFF0080300D
:1004C0007F02031D652A013038020318682A692A51
:1004D000762A83120313B801B9010030AD00003051
:1004E000AC000030AB000030AA00B7018312031348
:1004F0003808BE003E1C7D2A7E2A802AAC17822A3C
:100500007F30AC053E08AE0003102E0CAD0037085E
:10051000AD042C290800F00101300A168A116D2360
:100520000A128A1183120313C6010A30F000003048
:10053000F1005208F3005108F2000A168A11122441
:100540000A128A11700883120313C5004508031D9F
:10055000AA2AAB2ACB2AF00101300A168A116D2390
:100560000A128A110B30F4008930F5008030F60051
:100570000A168A11AB220A128A112730F9000D30AF
:10058000F8002630F700F70BC32AF80BC32AF90B43
:10059000C32A0000D12C4608F700F8017708F000C4
:1005A0007808F1000A30F2000030F3000A168A11D0
:1005B000E1210A128A11710883120313C80070081E
:1005C000C7004608313EA0002030A10047080A16A7
:1005D0008A1180220A128A1183120313A2000130A9
:1005E000C7070318C80A0030C80747080A168A1147
:1005F00080220A128A1183120313A3000130C70755
:100600000318C80A0030C8073A30A40047080A1681
:100610008A1180220A128A1183120313A500013065
:10062000C7070318C80A0030C80747080A168A1106
:1006300080220A128A1183120313A6000130C70711
:100640000318C80A0030C8073A30A70047080A163E
:100650008A1180220A128A1183120313A800013022
:10066000C7070318C80A0030C80747080A168A11C6
:1006700080220A128A1183120313A9000130C707CE
:100680000318C80A0030C8072030AA0047080A1615
:100690008A1180220A128A1183120313AB000130DF
:1006A000C7070318C80A0030C80747080A168A1186
:1006B00080220A128A1183120313AC000130C7078B
:1006C0000318C80A0030C8072030AD0047080A16D2
:1006D0008A1180220A128A1183120313AE0001309C
:1006E000C7070318C80A0030C80747080A168A1146
:1006F00080220A128A1183120313AF000130C70748
:100700000318C80A0030C807B0014608013EF700C8
:10071000003003180130F8007808803AF900803082
:100720007902031D952B450877020318982B992B06
:10073000582C831203134608013EF00000300318C2
:100740000130F1000A30F2000030F3000A168A117D
:10075000E1210A128A11710883120313C80070087C
:10076000C7004608323EB1002030B20047080A16E2
:100770008A1180220A128A1183120313B3000130F6
:10078000C7070318C80A0030C80747080A168A11A5
:1007900080220A128A1183120313B4000130C707A2
:1007A0000318C80A0030C8073A30B50047080A16CF
:1007B0008A1180220A128A1183120313B6000130B3
:1007C000C7070318C80A0030C80747080A168A1165
:1007D00080220A128A1183120313B7000130C7075F
:1007E0000318C80A0030C8073A30B80047080A168C
:1007F0008A1180220A128A1183120313B900013070
:10080000C7070318C80A0030C80747080A168A1124
:1008100080220A128A1183120313BA000130C7071B
:100820000318C80A0030C8072030BB0047080A1662
:100830008A1180220A128A1183120313BC0001302C
:10084000C7070318C80A0030C80747080A168A11E4
:1008500080220A128A1183120313BD000130C707D8
:100860000318C80A0030C8072030BE0047080A161F
:100870008A1180220A128A1183120313BF000130E9
:10088000C7070318C80A0030C80747080A168A11A4
:1008900080220A128A1183120313C0000130C70795
:1008A0000318C80A0030C80783120313C101782C4B
:1008B00083120313C201C301831203134208313EA2
:1008C00084002030831380000130C2070318C30A5C
:1008D0000030C3074308803AFF0080307F02031DC9
:1008E000732C10304202031C762C772C5C2C542C79
:1008F0002030F4000030F5008030F6000A168A112E
:10090000AB220A128A113130F4000030F500C030F9
:10091000F6000A168A11AB220A128A1101300A1255
:100920008A15D2210A128A1183120313C4003E30A1
:100930004406031D9C2C9D2CA52C46080319A12CB4
:10094000A22CA52C0130C602CB2A3D304406031D43
:10095000AA2CAB2CC22C4508FF3EF700FF30031831
:100960000030F8007808803A803C031DB92C7708E5
:1009700046020318BC2CBD2CC22C01308312031379
:10098000C607CB2A2F30831203134406031DC92C3C
:10099000CA2CCB2AF00101300A168A116D230A12E3
:1009A0008A11080083120313B001AB01AC01273098
:1009B000F4000A168A117C210A128A110F30831260
:1009C00003132705A0000A30F0002708A100043017
:1009D0000310A10CFF3E031DE82C21080A168A1102
:1009E00019210A128A11831203132007AD000F3058
:1009F0002805A0000A30F0002808A10004300310E8
:100A0000A10CFF3E031DFF2C21080A168A11192193
:100A10000A128A11831203132007AE000F30290532
:100A2000A0000A30F0002908A10004300310A10C36
:100A3000FF3E031D162D21080A168A1119210A12DC
:100A40008A11831203132007AF00F00101300A1648
:100A50008A116D230A128A119030F4008930F50052
:100A60008430F6000A168A11AB220A128A1101306C
:100A70000A128A15D2210A128A1183120313AA00BC
:100A80003E302A06031D452D462D952D3008031DA9
:100A90004A2D4B2D602D1830F0000030F1002D084C
:100AA000013EF200003003180130F3000A168A11EB
:100AB000A6240A128A11700883120313AD00A92E0E
:100AC0003003031D642D652D7A2D3C30F00000307D
:100AD000F1002E08013EF200003003180130F3004F
:100AE0000A168A11A6240A128A11700883120313A7
:100AF000AE00A92E02303006031D7F2D802DA92EB9
:100B00003C30F0000030F1002F08013EF2000030D0
:100B100003180130F3000A168A11A6240A128A115A
:100B2000700883120313AF00A92E3D302A06031D5F
:100B30009A2D9B2DB02D0330F0000030F1003008CD
:100B4000013EF200003003180130F3000A168A114A
:100B5000A6240A128A11700883120313B000A92E6A
:100B600037302A06031DB52DB62D822E0A30F0002F
:100B70000030F1002D08A000A1012008F20021089A
:100B8000F3000A168A11A6240A128A117008831229
:100B90000313A2007108A3000A30F0000030F10036
:100BA0002D08A400A5012408F2002508F3000A1668
:100BB0008A1160250A128A11700883120313A60095
:100BC00003300310A60DFF3E031DE12D0310260D7B
:100BD0002204F80002300A168A113F210A128A11F3
:100BE0000A30F0000030F100831203132E08A00039
:100BF000A1012008F2002108F3000A168A11A62498
:100C00000A128A11700883120313A2007108A3004C
:100C10000A30F0000030F1002E08A400A5012408DD
:100C2000F2002508F3000A168A1160250A128A11BB
:100C3000700883120313A60003300310A60DFF3EB5
:100C4000031D1D2E0310260D2204F80001300A1684
:100C50008A113F210A128A110A30F0000030F10097
:100C6000831203132F08A000A1012008F20021081D
:100C7000F3000A168A11A6240A128A117008831238
:100C80000313A2007108A3000A30F0000030F10045
:100C90002F08A400A5012408F2002508F3000A1675
:100CA0008A1160250A128A11700883120313A600A4
:100CB00003300310A60DFF3E031D592E0310260D11
:100CC0002204F80000300A168A113F210A128A1104
:100CD0005B30F4008930F5008030F6000A168A1186
:100CE000AB220A128A114D3083120313A20019306D
:100CF000A1004F30A000A00B7B2EA10B7B2EA20BDE
:100D00007B2EC92F2F302A06031D872E882EA92E51
:100D1000F00101300A168A116D230A128A11673018
:100D2000F4008930F5008030F6000A168A11AB22F3
:100D30000A128A114D3083120313A2001930A10048
:100D40004F30A000A00BA22EA10BA22EA20BA22E10
:100D5000D02F0130AB070318AC0A0030AC070030CD
:100D60002C020A3003192B02031CB72EB82EBA2E00
:100D7000AB01AC013008031DBE2EBF2ED92E0030B2
:100D80002C02053003192B020318C72EC82ED92EAA
:100D9000C430F80020300A168A11F6200A128A118F
:100DA000C530F80020300A168A11F6200A128A117E
:100DB0000D2FC430F8000A30F0000030F1002D088B
:100DC000A000A1012008F2002108F3000A168A11F0
:100DD00060250A128A117008303E0A168A11F62020
:100DE0000A128A11C530F8000A30F0000030F10014
:100DF000831203132D08A000A1012008F20021088E
:100E0000F3000A168A11A6240A128A117008303ECD
:100E10000A168A11F6200A128A11C630F8003A30F2
:100E20000A168A11F6200A128A118312031330035C
:100E3000031D1B2F1C2F362F00302C0205300319E9
:100E40002B020318242F252F362FC730F80020300F
:100E50000A168A11F6200A128A11C830F8002030CA
:100E60000A168A11F6200A128A116A2FC730F80072
:100E70000A30F0000030F1002E08A000A101200887
:100E8000F2002108F3000A168A1160250A128A115D
:100E90007008303E0A168A11F6200A128A11C830EC
:100EA000F8000A30F0000030F100831203132E081E
:100EB000A000A1012008F2002108F3000A168A11FF
:100EC000A6240A128A117008303E0A168A11F620EA
:100ED0000A128A11C930F8003A300A168A11F6202F
:100EE0000A128A110230831203133006031D792F70
:100EF0007A2F942F00302C02053003192B0203188F
:100F0000822F832F942FCA30F80020300A168A11BE
:100F1000F6200A128A11CB30F80020300A168A1106
:100F2000F6200A128A11372DCA30F8000A30F00074
:100F30000030F1002F08A000A1012008F2002108D4
:100F4000F3000A168A1160250A128A117008303ED1
:100F50000A168A11F6200A128A11CB30F8000A30DC
:100F6000F0000030F100831203132F08A000A1014C
:100F70002008F2002108F3000A168A11A6240A129A
:100F80008A117008303E0A168A11F6200A128A1158
:100F9000372DF00101300A168A116D230A128A11C9
:100FA00008008313D730FD001330FE00A330FF008C
:100FB000A03084000A168A1130210A128A116E307C
:100FC000FD001030FE008C30FF006B3084000A16EC
:100FD0008A1130210A128A11D7308400E0300A12B7
:100FE0008A1103200A128A11513084006B300A12D0
:100FF0008A1103200A128A1183010A168A119D2E72
:101000002D342D342D342D342D342D342D344E34B7
:101010004F342034443441345434413420344C343B
:101020004F3447345334203446344F3455344E34DF
:1010300044342D342D342D342D342D342D342D3491
:101040000D340A3400342D342D342D342D342D3408
:101050002D342D342D342D342D342D342D342D3488
:101060002D342D342D342D342D342D342D342D3478
:101070002D342D342D342D342D342D342D340D3488
:101080000A3400342D342D342D342D342D342D34A8
:101090002D342D342D342D342D34443441345434F6
:1010A000413420344C344F3447342D342D342D34D6
:1010B0002D342D342D342D342D342D340D340A346B
:1010C00000344E344F342E34203420342034543401
:1010D00049344D34453420342034203420342034F5
:1010E0004534563445344E3454342034203453344B
:1010F00050344534453444340D340A3400342034FB
:101100004C346F3467347334203444346F34773460
:101110006E346C346F346134643465346434003458
:101120002034543449344D34453420342034203470
:101130002034203445345634203420345334503451
:1011400000344334683461346E3467346534203499
:10115000503461347334733477346F34723464349C
:1011600000342034203457346134693474342034EA
:101170003334303420345334653463342734733497
:10118000003441347434743465346D3470347434E0
:10119000733420346C346534663474343A34003437
:1011A000203420345534733465347234203442345E
:1011B0006C346F3463346B346534643400345734C6
:1011C00072346F346E346734203450346134733485
:1011D000733477346F3472346434003445346E348D
:1011E000743465347234203450346134733473345D
:1011F00077346F347234643400344E3445345734A9
:101200002034503441345334533457344F345234EF
:101210004434203400344E346F3420344C346F3432
:1012200067347334203446346F3475346E34643428
:1012300000344C346F34673469346E3420345334A2
:1012400075346334633465347334733400344E342A
:1012500045345734203450344134533453345734A4
:101260004F34523444340034523445342D344534F0
:101270004E3454344534523420345034573444348A
:1012800000344C346F3467347334203443346C345A
:1012900065346134723465346434003444346F34FA
:1012A00077346E346C346F346134643420344C34AD
:1012B0006F346734003473346134763469346E3497
:1012C00067342E342E342E342E342E3400346534CC
:1012D00078346934743469346E3467342E342E347F
:1012E0002E342E34003443346C346534613472341B
:1012F00020344C346F3467340034533465347434E0
:101300002034543469346D346534723400344D34CF
:10131000493453344D344134543443344834003424
:10132000483448343A344D344D343A3453345334D9
:101330000034563469346534773420344C346F3497
:10134000673400342034203420342034533445347E
:1013500054340034203420342034203420342034D9
:101360000034453478346934743400342E342034F5
:10137000203400344334203400344F344E340034AD
:101380004734313400344734323400344734333452
:10139000003447343434003447344E340034473456
:1013A00052340034F1007108031DD729D829DD29F2
:1013B0008312031306083F39FB293F3083120313BE
:1013C0000605F0003F3070060319E729E829EF29E8
:1013D0006B080319EC29ED29EF29EB01D8293F30DF
:1013E0000605F0003F307006031DF729F829FA2999
:1013F0000130EB003F300800FC0102307C0603198D
:10140000022A032A202A05307C06031D082A092AFD
:101410000A2A202A7C08D73E840083130008F100A2
:101420008312031351080A168A11DA220A128A1546
:10143000013083120313D1070318D20A0030D207F8
:101440000130FC0708307C02031C272A282AFD29CA
:10145000831203135508F5007507A03E840083131B
:101460000008F600840A0008F7007708FF007608F5
:1014700084000A168A1100200A128A15F100510808
:101480000A168A11DA220A128A150130831203130E
:10149000D1070318D20A0030D2070130F5005508F1
:1014A000F6007607A03E840083130008F700840A44
:1014B0000008F80075087707FA007808F9000318A3
:1014C000F90AF51BF9037908FB007B08FF007A088D
:1014D00084000A168A1100200A128A15F1005108A8
:1014E0000A168A11DA220A128A15013083120313AE
:1014F000D1070318D20A0030D2076308F10051085F
:101500000A168A11DA220A128A150130831203138D
:10151000D1070318D20A0030D2076408F10051083D
:101520000A168A11DA220A128A150130831203136D
:10153000D1070318D20A0030D207003052026430BB
:1015400003195102031CA52AA62AA82AD101D201F7
:10155000080083120313CE009030F4008830F500A9
:101560008030F6000A168A11AB220A128A156630FC
:10157000F4000A168A117C210A128A156630F700D7
:101580000A168A1154240A128A153E308312031354
:101590004E06031DCC2ACD2AD22A0730D5000030B2
:1015A000D6001D2B3D304E06031DD72AD82AFA2A15
:1015B000073055065604031DDE2ADF2AE42A0130CF
:1015C000D5000030D6001D2B5608803AFF00803031
:1015D0007F02031DED2A063055020318F02AF12A76
:1015E0001D2B013083120313D5070318D60A0030D0
:1015F000D6071D2B3B304E06031DFF2A002B1D2B4B
:10160000073055065604031D062B072B082BDF2A2F
:101610005608803AFF0080307F02031D112B0230F4
:101620005502031C142B152B1D2BFF3083120313A3
:10163000D5070318D60AFF30D607831203135508BF
:10164000CA004A07A03E840083130008F400840AFD
:1016500000088403F500CA30F6000A168A11AB228E
:101660000A128A1500300A168A115D210A128A159B
:10167000700883120313CA007108CB00CC01CD019E
:101680004D08F9004C08F8004B08F7004A08F6002E
:1016900000300A128A110B200A128A157908831267
:1016A0000313AD007808AC007708AB007608AA00F9
:1016B0004130A9002330A800AE30A7001430A600A6
:1016C0000A128A11C1200A128A15831203132908EB
:1016D000C3002808C2002708C1002608C0000A1657
:1016E0008A1127260A128A15831203134108D4008F
:1016F0004008D3000A30F0000030F1005408F30035
:101700005308F2000A168A1112240A128A15700868
:10171000303E83120313E3000A30F0000030F10082
:101720005408F3005308F2000A168A11DA230A1249
:101730008A157008303E83120313E400E50163301C
:10174000F4000030F500CE30F6000A168A11AB2204
:101750000A128A15831203135908CA00CB015608CE
:101760004B06031DB52B55084A060319B82BB92B98
:10177000C22B0A128A15FC210A128A15831203133E
:101780005508D9000800FC010A30F0000030F100D3
:10179000831203135208F3005108F2000A168A114B
:1017A00012240A128A157008FA007A08031DD92B30
:1017B000DA2BE42B0030F5008830F6000A168A1187
:1017C00006220A128A15E32C4230F5008830F60012
:1017D0000A168A1106220A128A153F30F50088304F
:1017E000F6000A168A1106220A128A156130F500DF
:1017F0008830F6000A168A1106220A128A1523304A
:10180000F5008830F6000A168A1106220A128A1597
:10181000FB01C52C7B08313E0A168A11AE200A1244
:101820008A15B630F5008930F6000A168A110622AC
:101830000A128A157C080A168A1180220A128A1551
:101840000A168A11AE200A128A150130FC077C089C
:101850000A168A1180220A128A150A168A11AE20E7
:101860000A128A150130FC073A300A168A11AE2096
:101870000A128A157C080A168A1180220A128A1511
:101880000A168A11AE200A128A150130FC077C085C
:101890000A168A1180220A128A150A168A11AE20A7
:1018A0000A128A150130FC073A300A168A11AE2056
:1018B0000A128A157C080A168A1180220A128A15D1
:1018C0000A168A11AE200A128A150130FC077C081C
:1018D0000A168A1180220A128A150A168A11AE2067
:1018E0000A128A150130FC07AD30F5008930F60088
:1018F0000A168A1106220A128A157C080A168A110B
:1019000080220A128A150A168A11AE200A128A1536
:101910000130FC077C080A168A1180220A128A15F7
:101920000A168A11AE200A128A150130FC07AA3065
:10193000F5008930F6000A168A1106220A128A1565
:101940007C080A168A1180220A128A150A168A1140
:10195000AE200A128A150130FC077C080A168A118B
:1019600080220A128A150A168A11AE200A128A15D6
:101970000130FC073F30F5008830F6000A168A1166
:1019800006220A128A150130FB077A087B02031C23
:10199000CA2CCB2C0A2C7F30F4008830F500803024
:1019A000F6000A168A11AB220A128A154D30F90088
:1019B0001930F8004F30F700F70BDC2CF80BDC2C5B
:1019C000F90BDC2CE32C0800831203135B080319CA
:1019D000EA2CEB2C382DD030F4008830F500803024
:1019E000F6000A168A11AB220A128A15B130F400E9
:1019F0008830F500C030F6000A168A11AB220A12B0
:101A00008A151A30FD005E30FC006E30FB00FB0BC7
:101A1000072DFC0B072DFD0B072D00000130831255
:101A20000313D7070318D80A0030D807003058022C
:101A30001E3003195702031C1E2D1F2D492ED701DE
:101A4000D801DB010330EC00DD01F00101300A16A2
:101A50008A116D230A128A15EE30F4008830F500E1
:101A60008030F6000A168A11AB220A128A15492E16
:101A7000EE30F4008830F5008030F6000A168A1146
:101A8000AB220A128A1501300A128A15D2210A12D3
:101A90008A1583120313A0007A08840083130003BD
:101AA000031D532D542D492E04305D020318592D6A
:101AB0005A2DAF2D05305C0203185F2D602D6A2D65
:101AC0005D08C43EF8005F300A168A11F6200A123B
:101AD0008A157B2D0A305C0203186F2D702D7A2D2C
:101AE0005D08C43EF80020300A168A11F6200A125A
:101AF0008A157B2DDC01013083120313DC073E3095
:101B00002006031D842D852D992D5D085E3E8400E1
:101B10003030831380005D08C43EF8002A300A1676
:101B20008A11F6200A128A15013083120313DD0789
:101B3000492E3D302006031D9E2D9F2D492E5D0808
:101B40005E3E84003130831380005D08C43EF8009F
:101B50002A300A168A11F6200A128A15942DE201FB
:101B60005E30F000D230F1000A168A110A230A1200
:101B70008A1570087104031DBE2DBF2DE42DF001E0
:101B800001300A168A116D230A128A151930F400E1
:101B90008930F5008030F6000A168A11AB220A124D
:101BA0008A151A30FD005E30FC006E30FB00FB0B26
:101BB000D72DFC0BD72DFD0BD72D00007A08840004
:101BC000023083138000492E013083120313EC028C
:101BD0006C08303EE900EA01F00101300A168A1172
:101BE0006D230A128A15DF30F4008830F50080304A
:101BF000F6000A168A11AB220A128A15C130F400C7
:101C00008830F500C030F6000A168A11AB220A129D
:101C10008A156930F4000030F500CE30F6000A165F
:101C20008A11AB220A128A151A30FD005E30FC00C0
:101C30006E30FB00FB0B1A2EFC0B1A2EFD0B1A2E1E
:101C40000000831203136C08031D272E282E342E48
:101C50000130DB00D701D801F00101300A168A11EA
:101C60006D230A128A15492EF00101300A168A11D5
:101C70006D230A128A15EE30F4008830F5008030AA
:101C8000F6000A168A11AB220A128A158312031370
:101C9000DD01080028308400831603134D088313E8
:101CA0008000840A4E088000840A4F088000840A5D
:101CB00050088000840A51088000203084004808C1
:101CC0008000840A49088000840A4A088000840A47
:101CD0004B088000840A4C08800083120313B30170
:101CE000B101AE01AF01F00101300A168A116D2376
:101CF0000A128A152730F4008930F5008230F60088
:101D00000A168A11AB220A128A1501300A128A15A4
:101D1000D2210A128A1583120313B2003730320619
:101D2000031D932E942E952EFF2F0130AE0703181E
:101D3000AF0A0030AF0700302F020A3003192E021D
:101D4000031CA32EA42EA62EAE01AF013E303206F8
:101D50000319AB2EAC2EB22E3D303206031DB12E30
:101D6000B22E992F3E303206031DB72EB82EBB2E51
:101D70003030B000C32E3D303206031DC02EC12EC0
:101D8000C32E3130B0003108031DC72EC82ECF2E10
:101D90003308283E8400300883138000D52E330892
:101DA000203E84003008831380000130B3070430E4
:101DB0003302031CDC2EDD2E992F3108031DE12E8A
:101DC000E22EF82E0130B100B301F00101300A1605
:101DD0008A116D230A128A153430F4008930F50017
:101DE0008230F6000A168A11AB220A128A15992F40
:101DF0002830F0002030F1000A168A110A230A1256
:101E00008A1570087104031D062F072F4E2F8312A9
:101E10000313B4013408283E840083130008FB0038
:101E200034087A07FC007C0884007B0880000130BD
:101E3000B40704303402031C1E2F1F2F0A2F7A0808
:101E4000043E84008001F00101300A168A116D23DE
:101E50000A128A15FD30F4008830F5008230F60051
:101E60000A168A11AB220A128A15A230F4008930B0
:101E7000F500C230F6000A168A11AB220A128A1542
:101E80004D30FD001930FC004F30FB00FB0B462F9E
:101E9000FC0B462FFD0B462F4D2FFF2FF00101307D
:101EA0000A168A116D230A128A158730F4008930C8
:101EB000F5008430F6000A168A11AB220A128A1540
:101EC0004D30FD001930FC004F30FB00FB0B662F3E
:101ED000FC0B662FFD0B662F6D2F83120313B401CD
:101EE0003408283E84005F30831380003408203E8D
:101EF00084005F3080000130B40704303402031CDA
:101F0000822F832F702FAC01A401B301B101F00126
:101F100001300A168A116D230A128A152730F4003F
:101F20008930F5008230F6000A168A11AB220A12B7
:101F30008A150430831203133302031CA02FA12F30
:101F4000A62F0330A5000030A600AD2F3308FB00FC
:101F5000FC017B08A5007C08A6002508A700B401A9
:101F60003108031DB42FB52FBC2F3408283E840040
:101F700083130008AD00C22F3408203E8400831371
:101F80000008AD0034082706031DC72FC82FDB2F1C
:101F900000302F02053003192E020318D02FD12F45
:101FA000DB2F3408C63EF80020300A168A11F620CE
:101FB0000A128A15F42F5F302D06031DE02FE12F42
:101FC000EB2F3408C63EF8005F300A168A11F6205F
:101FD0000A128A15F42F3408C63EF8002A300A1671
:101FE0008A11F6200A128A15013083120313B407EE
:101FF00004303402031CFD2FFE2FB02F852E080065
:10200000FF1B0A2883137F1883170008840A03190B
:10201000FF0A08007F087F398A000408840A031930
:04202000FF0A820031
:102118000134033403348316031306083F3886005A
:102128000800831603139F17831203131F14080054
:102138000A168A11D9200A168A1183160313111454
:1021480008000A168A11D9200A168A118316031361
:1021580011150800F400831203130C1EB428B528C7
:10216800AF287408990008000A168A11A5200A16D3
:102178008A110A168A119C200A168A110800F00092
:102188000A168A11D9200A168A11700883120313B5
:1021980093000800831603138801091189100A1691
:1021A8008A11FD240A168A110800831603131419CC
:1021B800DE28DF28D92811081F39031DE428E5285F
:1021C800D928080083160313071387171812181540
:1021D8008130990018138312031398178316031379
:1021E80098160800F900F00178080A168A116D237C
:1021F8000A168A11F001F00A79080A168A116D2365
:102208000A168A11080000300A168A1155220A1681
:102218008A11FA007F30FA057A08F80000300A16A9
:102228008A113F210A168A110800F200F101721C76
:102238001E291F2921297008F1070310F00D03102A
:10224800F20C7208031D29292A291B297108080084
:102258007E088A007F0882000A168A112C210A1635
:102268008A118000840A04087D0603190034FF0AD5
:102278000319FE0A3029F9000A168A119C200A1649
:102288008A11D0300A168A11C3200A168A117908D1
:102298000A168A11C3200A168A1178080A168A11A2
:1022A800C3200A168A110A168A11A5200A168A114D
:1022B8000800F5007508F20003300310F20DFF3E28
:1022C800031D6129831203131F08C73972049F0075
:1022D8001F151F19702971296D291E08F40083160E
:1022E80003131E08F3007408F1007308F0000800D7
:1022F8007408840002300A168A1155220A168A11B7
:1023080083138000740A840001300A168A1155224A
:102318000A168A11831380007408023E8400003074
:102328000A168A1155220A168A118313800008009A
:10233800F0000A168A11D9200A168A118316031387
:1023480091150A168A11D9200A168A1183120313C5
:102358001308F1007003031DB229B329B7298316A6
:1023680003139116BA2983160313911211167108D3
:10237800080083120313D101D201F00101300A16BB
:102388008A116D230A168A114130F4008930F5004C
:102398008030F6000A168A11AB220A168A114D30CF
:1023A800F9001930F8004F30F700F70BD929F80B6E
:1023B800D929F90BD929E0290800F401F501701C85
:1023C800E629E729ED297208F4070318F50A7308C6
:1023D800F50701300310F20DF30DFF3E031DEE2942
:1023E80001300310F10CF00CFF3E031DF5297008B5
:1023F8007104031D002A012AE3297508F1007408F5
:10240800F00008001B2A7608FF00750884000A16E9
:102418008A1100200A168A110A168A11AE200A1695
:102428008A110130F5070318F60A0030F607760816
:1024380083120313FF00750884000A168A1100200E
:102448000A168A11003A031D2A2A2B2A072A08008D
:102458000A168A1195200A168A110A168A11CE20A0
:102468000A168A110A168A118F200A168A11003054
:1024780083120313A3000130A2008630A100A0300C
:10248800A0000A168A113B230A168A110A168A1115
:1024980007210A168A110A168A11E6200A168A11D5
:1024A8000800F2000A168A119C200A168A11D030F8
:1024B8000A168A11C3200A168A1172080A168A1186
:1024C800C3200A168A110A168A11B8200A168A1118
:1024D800D1300A168A11C3200A168A1100300A164A
:1024E8008A119C210A168A11F3000A168A11A5205E
:1024F8000A168A1173080800F2000A168A119C202D
:102508000A168A11A0300A168A11C3200A168A11DF
:1025180072080A168A11C3200A168A110A168A1125
:10252800B8200A168A11A1300A168A11C3200A1681
:102538008A1100300A168A119C210A168A11F300A2
:102548000A168A11A5200A168A1173080800F001D4
:1025580076080A168A116D230A168A11C92AF0010B
:10256800F00A7508FF00740884000A168A11002012
:102578000A168A110A168A116D230A168A11013061
:10258800F4070318F50A0030F507750883120313DA
:10259800FF00740884000A168A1100200A168A119E
:1025A800003A031DD82AD92AB32A0800F4000A16CB
:1025B8008A119C200A168A11A0300A168A11C32093
:1025C8000A168A1174080A168A11C3200A168A1173
:1025D80071080A168A11C3200A168A110A168A1166
:1025E800A5200A168A11B830F2000B30F30001302A
:1025F800F2020030031CF303F302720A031D082BD6
:10260800730A031D082B092BFB2A08002A2B7108C3
:1026180084000008F200700884000008720603199C
:10262800162B172B262B710884000008F20070085F
:1026380084000008F30072087302F000F101031C23
:10264800F1033A2B0130F0070130F10770088400DC
:10265800831300080319312B322B172B71088400C0
:102668000008031D382B392B0B2B172B080083125E
:10267800031394152008A4002108A5002208A60029
:102688002308A70002300310A40DA50DA60DA70D61
:10269800FF3E031D472B2708F3002608F2002508F4
:1026A800F1002408F0000130F7003130F6002D3039
:1026B800F5000030F4000A168A11C3250A168A119B
:1026C8007008FF3E831603139300831203139416B6
:1026D8000800F3007018712B752B8312031309156A
:1026E800782B8312031309117308F03988008914B1
:1026F800A630F100F10B7E2B000083120313891022
:1027080073080F39F10003300310F10DFF3E031D6C
:10271800882B0310710D88008914A630F100F10B85
:10272800932B00008312031389101B30F2009E3094
:10273800F100F10B9D2BF20B9D2B00000800BD341E
:102748008934CC348934C0348934C3348934C634A8
:102758008934C9348934CF348934BA3489349934C2
:102768008934733489344E3489347D348934A134BE
:102778008834B1348934CC348934CF348934C03482
:102788008934C3348934C6348934C93489345F34CC
:102798005F345F345F3400345F345F345F345F34F8
:1027A800003431343134303430340034700871043A
:1027B8000319DF2BE02B0D2C0130F400EC2B01303A
:1027C8000310F00DF10DFF3E031DE42B0130F4075B
:1027D800F11FEF2BF02BE32B71087302031DF62B6F
:1027E80070087202031CF92BFA2B002C7008F202F5
:1027F8007108031CF303F30201300310F10CF00C11
:10280800FF3E031D012C0130F402031D0C2C0D2C7E
:10281800F02B7308F1007208F0000800F401F501CC
:10282800700871040319192C1A2C4F2C0130F6006A
:10283800262C01300310F00DF10DFF3E031D1E2C58
:102848000130F607F11F292C2A2C1D2C013003100A
:10285800F40DF50DFF3E031D2B2C71087302031DAB
:10286800372C70087202031C3A2C3B2C422C70083F
:10287800F2027108031CF303F3027414013003100D
:10288800F10CF00CFF3E031D432C0130F602031D32
:102898004E2C4F2C2A2C7508F1007408F000080003
:1028A8007708840083130008F80004300310F80C3C
:1028B800FF3E031D5A2C78080339303E8316031354
:1028C800D7007708840000080F39303ED8003A3026
:1028D800D900770A84000008F80004300310F80CC7
:1028E800FF3E031D722C78080739303EDA00770A5C
:1028F800840000080F39303EDB003A30DC007708EE
:10290800023E84000008F80004300310F80CFF3E73
:10291800031D892C78080739303EDD007708023E10
:10292800840000080F39303EDE00DF01D730F400A4
:102938000030F500C030F6000A168A11AB220A16DC
:102948008A110800F501F31FAA2CAB2CB22CF2094E
:10295800F309F20A0319F30A0130F500F11FB52C47
:10296800B62CBB2CF009F109F00A0319F10A70081A
:1029780071040319C02CC12CEE2C0130F400CD2CAD
:1029880001300310F00DF10DFF3E031DC52C013081
:10299800F407F11FD02CD12CC42C71087302031D2D
:1029A800D72C70087202031CDA2CDB2CE12C70087F
:1029B800F2027108031CF303F30201300310F10C57
:1029C800F00CFF3E031DE22C0130F402031DED2C38
:1029D800EE2CD12C75080319F22CF32CF82CF209E3
:1029E800F309F20A0319F30A7308F1007208F000F8
:1029F8000800C330F500CD30F400F40B012DF50BC1
:102A0800012DF00133300A168A116D230A168A1136
:102A18001B30F5009E30F400F40B102DF50B102D33
:102A28000000F00133300A168A116D230A168A1144
:102A3800A630F400F40B1E2D0000F00133300A1606
:102A48008A116D230A168A11292D2A2D0000F001FA
:102A580002300A168A116D230A168A11A630F4006C
:102A6800F40B342D0000F00128300A168A116D236A
:102A78000A168A11A630F400F40B402D0000F0016C
:102A880001300A168A116D230A168A110430F500DE
:102A98003D30F400F40B4E2DF50B4E2D532DF00167
:102AA8000C300A168A116D230A168A11A630F40012
:102AB800F40B5C2D00000800F501F11F642D652D55
:102AC8006C2DF009F109F00A0319F10A0130F5003B
:102AD800F31F6F2D702D772DF209F309F20A0319F0
:102AE800F30A0130F506F601F701700871040319BD
:102AF8007E2D7F2DB42D0130F4008B2D0130031075
:102B0800F00DF10DFF3E031D832D0130F407F11F79
:102B18008E2D8F2D822D01300310F60DF70DFF3EFF
:102B2800031D902D71087302031D9C2D70087202FD
:102B3800031C9F2DA02DA72D7008F2027108031CFD
:102B4800F303F302761401300310F10CF00CFF3E8E
:102B5800031DA82D0130F402031DB32DB42D8F2DB4
:102B680075080319B82DB92DBE2DF609F709F60A0F
:102B78000319F70A7708F1007608F000080000301A
:102B8800FC000030FB000030FA000030F900730848
:102B98007204710470040319D22DD32D1E2E013036
:102BA800FD00E12D0130F8000310F00DF10DF20DDC
:102BB800F30DF80BD82D0130FD07F31FE42DE52D9B
:102BC800D62D0130F8000310F90DFA0DFB0DFC0DA0
:102BD800F80BE72D73087702031DFC2D72087602A7
:102BE800031DFC2D71087502031DFC2D700874026D
:102BF800031CFF2D002E0F2E7008F4027108031C11
:102C0800710FF5027208031C720FF6027308031C99
:102C1800730FF702791401300310F30CF20CF10C66
:102C2800F00CFF3E031D102E0130FD02031D1D2E6A
:102C38001E2EE52D7C08F3007B08F2007A08F100CF
:102C48007908F0000800031083120313420D430DA6
:102C5800C9004908031D312E322E3B2E0030C30017
:102C68000030C2000030C1000030C0009C2E400877
:102C7800C4004108C5004208C6004308C7001F3009
:102C88000310C70CC60CC50CC40CFF3E031D442E14
:102C98004408C800C217FF30C005FF30C105FF3027
:102CA800C2050030C3059630C902C91F5C2E5D2ECF
:102CB800752E4908803A973E0318632E642E652EB8
:102CC800322E01300310C30CC20CC10CC00CFF3EE5
:102CD800031D662E0130C907031D732E742E652E41
:102CE8008C2E20304902031C7A2E7B2E872E322E02
:102CF8000130C4000310C00DC10DC20DC30DC40BBB
:102D08007E2E0130C9024908031D8B2E8C2E7C2E85
:102D180048080319902E912E9C2EC009C109C2099A
:102D2800C309C00A0319C10A0319C20A0319C30A4D
:102D380008000A168A112C220A168A118312031314
:102D4800D00101300A128A15D2210A168A1183127B
:102D58000313CF0037304F06031DB32EB42EBD2EFC
:102D68000130D000F00101300A168A116D230A16CD
:102D78008A11831203135008031DC32EC42ECB2EB1
:102D88004F080A128A15A9220A168A11A52E50037D
:102D9800031DCF2ED02ED82E5030FA000A128A15D5
:102DA800E4240A168A11A52E02305006031DDD2ED2
:102DB800DE2EA52E0A168A1127270A168A118312D3
:102DC8000313DA00102F0A128A118B220A168A11AD
:102DD800A52E0A168A11BD210A168A11A52E0A12D5
:102DE8008A15C3230A168A11A52E0A128A11D2241B
:102DF8000A168A11A52ED230FA000A128A154A2616
:102E08000A168A11A52ED001F00101300A168A117E
:102E18006D230A168A11A52E5A08013A0319E72EBE
:102E2800033A0319ED2E013A0319F32E073A031951
:102E3800F92E013A0319FF2E033A0319072FA52E7D
:102E48000A128A11002883120313A201A301FF307A
:102E5800A000F00101300A168A116D230A168A11A2
:102E6800831203132308200603193B2F3C2F812FBD
:102E7800F00101300A168A116D230A168A11803072
:102E8800F8002A300A168A11F6200A168A118312C7
:102E980003132308FA007A07B03E8400831300085E
:102EA800F400840A00088403F5008230F6000A164C
:102EB8008A11AB220A168A11C030F80020300A168F
:102EC8008A11F6200A168A11831203132308FA00BE
:102ED8007A07B23E840083130008F400840A0008CD
:102EE8008403F500C230F6000A168A11AB220A16CE
:102EF8008A11831203132308A00022082306031D46
:102F0800862F872F982F8030F8002A300A168A11CA
:102F1800F6200A168A11C030F80020300A168A11E5
:102F2800F6200A168A11A82F8030F80020300A16D9
:102F38008A11F6200A168A11C030F8002A300A16BB
:102F48008A11F6200A168A1101300A128A15D2212E
:102F58000A168A1183120313A1003E302106031DAD
:102F6800B62FB72FC72F22080319BB2FBC2F342F1A
:102F78000130A202230822020318C32FC42F342FC2
:102F88000130A302342F3D302106031DCC2FCD2F55
:102F9800EE2F053022020318D22FD32F342F013001
:102FA800A2072308013EFA00003003180130FB0095
:102FB8007B08803AFC0080307C02031DE52F220844
:102FC8007A020318E82FE92F342F013083120313F4
:102FD800A307342F37302106031DF32FF42F342F86
:102FE800F00101300A168A116D230A168A1183121C
:082FF80003132208013E08004A
:08400000FF3FFF3FFF3FFF3FC0
:02400E00FB3F76
:00000001FF
